:020000040800F2
:1000000000500020257A0008A5790008A77900088B
:1000100000000000000000000000000000000000E0
:10002000000000000000000000000000A9790008A6
:100030000000000000000000AB790008AD79000866
:10004000757A0008757A0008757A0008757A0008D4
:10005000757A0008757A0008757A0008757A0008C4
:10006000757A0008757A0008757A0008757A0008B4
:10007000757A0008757A0008757A0008757A0008A4
:10008000757A0008757A0008757A0008000000008B
:10009000757A0008757A0008757A0008757A000884
:1000A000757A0008757A0008757A0008B979000831
:1000B000757A0008757A0008757A0008757A000864
:1000C00010B5064C2378002B07D1054B002B02D02E
:1000D000044800E000BF0123237010BDE4010020AC
:1000E00000000000009A0008044B10B5002B03D05C
:1000F0000349044800E000BF10BDC04600000000F6
:10010000E8010020009A00080023C25C0133002AA5
:10011000FBD1581E7047000002B4714649084900DF
:10012000095C49008E4402BC7047C0460022430867
:100130008B4274D303098B425FD3030A8B4244D3AF
:10014000030B8B4228D3030C8B420DD3FF220902F1
:1001500012BA030C8B4202D31212090265D0030BB0
:100160008B4219D300E0090AC30B8B4201D3CB03A6
:10017000C01A5241830B8B4201D38B03C01A5241E8
:10018000430B8B4201D34B03C01A5241030B8B42EA
:1001900001D30B03C01A5241C30A8B4201D3CB02D5
:1001A000C01A5241830A8B4201D38B02C01A5241BA
:1001B000430A8B4201D34B02C01A5241030A8B42BD
:1001C00001D30B02C01A5241CDD2C3098B4201D3D5
:1001D000CB01C01A524183098B4201D38B01C01A53
:1001E000524143098B4201D34B01C01A52410309CA
:1001F0008B4201D30B01C01A5241C3088B4201D379
:10020000CB00C01A524183088B4201D38B00C01A25
:10021000524143088B4201D34B00C01A5241411A4C
:1002200000D20146524110467047FFE701B5002059
:1002300000F0F0F802BDC0460029F7D076E770471D
:1002400003460B437FD4002243088B4274D3030937
:100250008B425FD3030A8B4244D3030B8B4228D3D8
:10026000030C8B420DD3FF22090212BA030C8B42FE
:1002700002D31212090265D0030B8B4219D300E09E
:10028000090AC30B8B4201D3CB03C01A5241830B23
:100290008B4201D38B03C01A5241430B8B4201D3D3
:1002A0004B03C01A5241030B8B4201D30B03C01AFC
:1002B0005241C30A8B4201D3CB02C01A5241830A76
:1002C0008B4201D38B02C01A5241430A8B4201D3A5
:1002D0004B02C01A5241030A8B4201D30B02C01ACF
:1002E0005241CDD2C3098B4201D3CB01C01A524136
:1002F00083098B4201D38B01C01A524143098B42BF
:1003000001D34B01C01A524103098B4201D30B01A7
:10031000C01A5241C3088B4201D3CB00C01A5241CC
:1003200083088B4201D38B00C01A524143088B4291
:1003300001D34B00C01A5241411A00D2014652412A
:10034000104670475DE0CA0F00D04942031000D349
:100350004042534000229C4603098B422DD3030A9E
:100360008B4212D3FC22890112BA030A8B420CD3AE
:10037000890192118B4208D3890192118B4204D3D7
:1003800089013AD0921100E08909C3098B4201D357
:10039000CB01C01A524183098B4201D38B01C01A91
:1003A000524143098B4201D34B01C01A5241030908
:1003B0008B4201D30B01C01A5241C3088B4201D3B7
:1003C000CB00C01A524183088B4201D38B00C01A64
:1003D0005241D9D243088B4201D34B00C01A52413B
:1003E000411A00D20146634652415B10104601D3C8
:1003F0004042002B00D54942704763465B1000D352
:10040000404201B5002000F005F802BD0029F8D0F7
:1004100016E770477047C0468446101C62468C46FB
:10042000191C634600E0C0461FB501F015FE002808
:1004300001D40021C8421FBD10B501F06DFD40423E
:10044000013010BD10B501F007FE002801DB0020CF
:1004500010BD012010BDC04610B501F0FDFD002803
:1004600001DD002010BD012010BDC04610B501F017
:100470008FFD002801DC002010BD012010BDC0460A
:1004800010B501F085FD002801DA002010BD012023
:1004900010BDC046002B11D1002A0FD1002900D178
:1004A000002802D00021C943081C07B4024802A159
:1004B0004018029003BDC0465DFFFFFF03B46846CD
:1004C00001B5029800F03CF8019B9E4602B00CBCBE
:1004D0007047C0469E2110B5C905041C02F0A2FD5C
:1004E000002803D1201C00F08FFE10BD9E21201C8F
:1004F000C90500F0C5FC00F087FE80231B069C4662
:100500006044F2E770B500220C4B04000D00FFF7C9
:10051000B7FF002804D12000290002F0DBFB70BDEA
:10052000064B00222000290002F070F802F0D2FBF6
:1005300080231B069C466044F1E7C0460000E04172
:10054000F0B54F464646D646C0B5040082B00D0011
:10055000914698468B422FD82CD04146484602F00F
:1005600089FD29000600200002F084FD331A9C4614
:10057000203B9A4600D576E04B46524693401F00FA
:100580004B46624693401E00AF4228D825D05346C2
:10059000A41BBD41002B00DA7BE000220023009267
:1005A00001930123524693400193012362469340F5
:1005B000009318E08242D0D90022002300920193D8
:1005C0000A9B002B01D01C605D600098019902B06D
:1005D0001CBC90469946A246F0BDA342D7D9002242
:1005E0000023009201936346002BE9D0FB07984655
:1005F000414672080A437B0866460EE0AB4201D1D1
:10060000A2420CD8A41A9D41012024196D41002159
:10061000013E24184D41002E06D0AB42EED9013EDA
:1006200024196D41002EF8D1009801995346001904
:100630006941002B23DB2B005246D3402A0064463D
:10064000E2401C0053461500002B2DDB26005746C8
:10065000BE40330026006746BE403200801A9941F2
:1006600000900191ACE7624620239B1A4A46DA408B
:100670006146130042468A4017001F4380E76246E6
:1006800020239B1A2A0066469A402300F340134316
:10069000D4E76246202300219B1A00220091019298
:1006A0000122DA40019280E72023624626009B1A4D
:1006B000DE402F00B0466646B74046463B00334317
:1006C000C8E7C046F8B54746CE4643025B0A440039
:1006D000C20F9C464800DD004B02240E5B0A000E50
:1006E00080B5984626009146C90FDB00271A8A423A
:1006F00029D0002F15DD00284AD1002B00D095E02D
:10070000ED08FF2C00D188E06B025B0AE6B25B02C9
:10071000F605580A3043D20710430CBC9046994660
:10072000F8BD002F00D087E0601CC0B2012800DCBB
:10073000B6E0EE1A720100D5C5E0002E3DD10022D0
:1007400000260023E3E7002F00DC96E000285DD0C0
:10075000FF2C60D08022D20413431B2F00DDECE07D
:100760002022D21B18009340F8405A1E93410343A5
:10077000ED186B017BD50134FF2C00D1B7E00122CD
:1007800007262A406B089A4D1D4015432E4029E04C
:10079000FF2CB5D08022D20413431B2F00DDB2E022
:1007A0002022D21B19009340F9405A1E93410B435B
:1007B000ED1A6B015BD5AD01AE09300002F03CFCD7
:1007C00005388640844265DC041B33002020013458
:1007D000E340041BA640751EAE41334307261D00AF
:1007E00000241E4001224B461A40002E04D00F2345
:1007F0002B40042B00D004356B0100D480E701347A
:10080000E6B2FF2C2FD1FF26002380E7002B52D128
:10081000FF2C00D074E70A00ED08002DF3D08023F0
:10082000DB032B435B025B0AFF2670E7013F002FCF
:10083000BED0FF2CB1D163E7002C47D0FF2869D090
:100840008024E4047A4225431B2A00DDC5E02C0005
:100850002026D440B21A95406A1E954125435D1B5F
:1008600004008946A5E7AB015B0A50E7002401229A
:100870004B461A406B07BAD142E7002F3BD10134F7
:10088000E0B201284ADDFF2CBDD00726ED186D0827
:100890002E40A7E70723574D241A35401E40A1E7F5
:1008A000002C1BD1002D6ED1002B00D19AE00A0044
:1008B0001D003C0024E7013F002F00D158E7FF2C2A
:1008C00000D04AE7A7E75E1B894676E7002D1CD1DA
:1008D0000A00FF281FD004001D0011E7002D5DD184
:1008E000002B17D180230022DB03FF260FE70A002D
:1008F000FF2600230BE7002C21D1002D66D1FF2815
:10090000E9D11D0087E7012352E77A1CA7D0FA43FB
:10091000FF2899D10A001D00FF24F1E6002E21D105
:10092000002D4FD0002B4CD0ED186B019ED5314BD4
:1009300007362E4001241D4054E7012318E7FF2805
:10094000DFD08024E4047F4225431B2F4DDC20268A
:10095000F61B2C00B540FC406A1E95412543ED185E
:10096000040006E7002DCCD0002B00D153E78021F6
:100970006046C903084203D04046084200D11D002A
:100980000121114047E7002B00D1B9E6EA1A5001D6
:1009900025D507265D1B2E40894623E7FF24002B23
:1009A00000D1ADE680226046D203104204D040461A
:1009B000104201D11D00894601224B46FF241A40F6
:1009C0009EE62B00DD080A0000249DE67A1CC6D0B6
:1009D000FF43FF28B9D11D001DE701253FE7151E84
:1009E00000D044E70022002391E60125B7E7C04686
:1009F000FFFFFF7DFFFFFFFBF8B557464E4645461C
:100A0000DE464402E0B546008846640A360EC70F4B
:100A1000002E63D0FF2E24D08023E400DB041C438F
:100A2000002399469B467F3E434642465D02D20FD5
:100A30005B006D0A1B0E9046924665D0FF2B55D089
:100A400080220021ED00D2047F3B1543F61A434675
:100A50004A467B400F2A00D98DE06D4892008258AB
:100A60009746002C54D108239946063BFF269B4607
:100A7000DAE70025534602291BD0032900D1BFE045
:100A8000012928D030007F30002820DD6A0704D0FB
:100A90000F222A40042A00D004352A0103D5300051
:100AA0005C4A80301540FE2803DCAC01640AC2B207
:100AB00001E0FF2200246402D205600ADB07104334
:100AC00018433CBC90469946A246AB46F8BD01226D
:100AD000101A1B287CDD00220024ECE7002C1DD11D
:100AE00004239946033B00269B469DE7FF3E002DCD
:100AF00020D1022143464A467B400A430F2AD8D8D8
:100B00004548920082589746002D19D10121F1E7FE
:100B10000C239946093BFF269B4685E7200002F0FF
:100B20008BFA7626431F9C4000237642361A99465C
:100B30009B4679E74A4603231A439146032186E7F9
:100B4000280002F079FA431F36189D4076360021BE
:100B50007DE780240023E403FF22ACE70025802307
:100B6000DB031C4228D01D4226D12B435C02640AC1
:100B70004346FF229FE762016C01A24224D21B215F
:100B80000025013E012710006D005200002801DB06
:100B9000944201D8121B3D4301390029F3D11400BE
:100BA000621E944125436DE7BA46594625005346D7
:100BB000022900D061E77CE78023DB031C43640249
:100BC000640A3B00FF2276E7121B1A210125D9E7B0
:100BD0009E362A00B5402C00C240651EAC4114432D
:100BE000620704D00F222240042A00D0043462019C
:100BF00003D4A401640A00225DE7012200245AE71D
:100C00008024E4032C436402640AFF2253E7C046B5
:100C1000849A0008FFFFFFF7C49A0008F0B54E461B
:100C200057464546DE46E0B543025B0A450083B0C1
:100C30000F1C99462D0EC60F002D57D0FF2D24D026
:100C40008020DB00C0041843002381469A469B465F
:100C50007F3D7C027A00FB0F640A120E984623D077
:100C6000FF2A4BD0E30080240020E4047F3A1C4399
:100C7000AD186B1C47460193534677403A000F2B43
:100C800048D87D499B00CB589F46002B00D085E07B
:100C900008339A46063B9B467C027A00FB0FFF25F1
:100CA000640A120E9846DBD1002C00D090E0524628
:100CB00001231A4392460120DBE74C4658461700B1
:100CC000022824D0032800D1CFE0002200230128ED
:100CD0004DD15802D205400AFF071043384303B0F4
:100CE0003CBC90469946A246AB46F0BD002B5BD17A
:100CF00004239A46033B00259B46AAE7FF35002CB8
:100D000060D1524602231A4392460220B1E7FF22E5
:100D10000023DEE74B461B0C9C464B462604360C54
:100D2000180461463300220C6446000C43434E43D2
:100D30005043544380191A0C1218964203D980214B
:100D400049028C4664441B041B0C1004C018830128
:100D50005E1EB341800E1843130C1B199B01034305
:100D60001C00230179D5012362081C401443019A19
:100D70007F32002A4DDD630704D00F232340042B6C
:100D800000D00434230103D53C4B019A1C4080322F
:100D9000FE2ABCDCA3015B0AD2B29AE70C239A4676
:100DA000093BFF259B4654E7180002F045F94A46E7
:100DB000431F76259A4000236D4291462D1A9A468C
:100DC0009B4646E7524603231A439246032050E7C8
:100DD000200002F031F9431F2D1A9C40763D00207F
:100DE00047E780230027DB03FF2272E7424666E7DE
:100DF0004C463200584662E780234A46DB031A42DB
:100E000022D01C4220D123435B025B0A4746FF22CB
:100E10005FE701239A1A1B2A21DC23000199D340A2
:100E20009E318C401A0023005C1EA34113435A07D5
:100E300004D00F221A40042A00D004335A0111D4DE
:100E40009B015B0A002244E780234A46DB031343ED
:100E50005B025B0A3700FF223BE7019587E7002230
:100E6000002336E70122002333E78023DB032343FB
:100E70005B025B0AFF222CE7049B0008FFFFFFF7E1
:100E8000F8B54746CE464400C20F80B54702480237
:100E9000400A8446664648007F0A240EF600250074
:100EA0009046FB00000EC90FB146FF2800D185E037
:100EB00001267140261A914257D0002E43DD0028AA
:100EC00000D07FE04946002900D1AAE0013E002E73
:100ED00000D0F7E05B1A5A0100D48BE09B019C091B
:100EE000200002F0A9F805388440854200DDD3E0F7
:100EF000451B230020200135EB40451BAC40621E02
:100F000094412343072400251C40012241460A4006
:100F1000002C04D00F211940042900D004335901BA
:100F200000D480E00135ECB2FF2D00D0A3E0FF2417
:100F300000235B02E405580AD207204310430CBC8F
:100F400090469946F8BD002E74D1601CC0B20128AD
:100F500000DCA7E04A469C1A620100D5B6E0002CEE
:100F6000BED1002200240023E3E7002E00DC85E050
:100F7000002846D0FF2C49D080224846D204104396
:100F8000814601221B2E09DC20204C46801B844018
:100F90004A462000F240441EA04102439B185A01D9
:100FA00028D50135FF2D00D1A8E00122072494495E
:100FB0001A405B080B4013431C40A6E7002E00D0EC
:100FC00078E775E7FF2C54D080224946D2041143BC
:100FD000894601221B2E09DC20214846891B8840B6
:100FE0004A460100F240481E81410A439B1A5A01B9
:100FF00000D573E7012241460A40590700D089E72E
:1010000011E04846002858D1FF2C0CD1DB08002BFA
:1010100000D18CE78020C00303435B025B0AFF24FE
:1010200087E7FF2C25D0DB08FF2DF0D05B025B0AA1
:10103000ECB27EE7002C4DD0FF2818D08024E404C9
:10104000724223431B2A00DDC4E01C002025D4404B
:10105000AA1A93405A1E934123434A460500D31AC5
:10106000884638E7721CF8D0F243FF28EAD10A001C
:101070004B46FF25D7E79B015B0A5AE7002E41D17B
:10108000651CE9B2012945DDFF2D00D14FE707249A
:101090004B445B081C4038E707225A4B2D1A23406B
:1010A000144032E7002C1DD1002B7AD14B46002B87
:1010B00000D191E00A000025B5E7013E002E19D1CC
:1010C0004B446CE7FF2C84D1FF25ACE74A468846A9
:1010D000D41A05E7002BC5D10A00FF28C8D00500A7
:1010E0004B46A0E7002B49D14B46002B77D00A0096
:1010F000FF2598E7FF2C00D043E787E70A00FF248D
:10110000002316E7002C15D1002B57D1FF28E6D17C
:101110004B467BE7002C20D1002B57D049460029B5
:1011200053D04B445A0168D50724364A1C40012548
:101130001340EAE6FF28EBD08022D2047642134324
:101140001B2E53DC2025AD1B1A00AB40F2405C1E69
:10115000A34113434B44050021E7002BD8D0494657
:10116000002900D152E78021C9030F4200D14DE789
:101170006046084200D049E74B4647E74846FF250E
:10118000002800D14FE78022D203174204D06046E6
:10119000104201D14B46884601224146FF250A40B4
:1011A00041E7484600281FD01A1A500120D54A4668
:1011B0000724D31A1C4088460025A6E6741CC9D013
:1011C000F643FF28BCD14B4620E799464B46002505
:1011D000DB082BE7012340E700220023A9E6802358
:1011E0000022DB03FF24A4E600251CE70123B1E76E
:1011F000002AF1D013000025FCE60025FAE6C046DF
:10120000FFFFFF7DFFFFFFFB41024200C30F490AC2
:10121000120E00207E2A0DD99D2A0CD880200004B1
:101220000143952A0ADC9620821AD1404842002BBD
:1012300000D108007047034A9818FBE7963A91409E
:10124000F4E7C046FFFFFF7F70B500283DD0C3170D
:10125000C5185D40C40F280001F0EEFE9E22121A50
:10126000962A07DCD2B2082833DD083885406802A8
:10127000400A23E0992A0BDD052329001B1AD940D7
:1012800003001B339D402B005D1EAB4119430D0035
:10129000052801DD431F9D402B000F490B406E07C1
:1012A00009D00F263540042D05D004335D0102D549
:1012B0009F220B40121A9B01580AD2B24002D2055B
:1012C000400AE4071043204370BD002400220020A0
:1012D000F4E76802400AF1E7FFFFFFFBF0B54F4675
:1012E0004646D6460C000903C0B5490A470F5E00C2
:1012F00039431F03DB0F9C4665007B0A570F1F43D2
:101300006D0DE40F760DA146C000B846D200AB1BB0
:1013100064457BD0002B5FDD002E00D0A4E03E00B2
:10132000164300D112E15E1E002E00D09EE1871A06
:101330004346B84280410125C91A4042091A0B02AE
:1013400000D431E149024E0A002E00D16EE1300096
:1013500001F072FE0300083B1F2B00DD61E120223B
:101360003900D21A9E40D1409F400E439D4200DD7D
:1013700051E15D1B6B1C1F2B00DD7CE12021C91A94
:101380003D0030008F408840DD40791E8F413100A4
:1013900007222843D940002507433A40002A09D0B4
:1013A0000F233B40042B05D03B1DBB42BF417F4276
:1013B000C9191F000B0200D426E26A1CC64B550552
:1013C0006D0D9A4200D106E1C44AFF080A40530756
:1013D00052023B43120B8EE0002B00D0B8E06B1C96
:1013E0005B055B0D012B00DC30E1871A4346B842F8
:1013F000B641CB1A76429E1B330200D54CE13B002E
:101400003343A1D100220024002570E0002B00DC32
:10141000E5E0002E00D183E0AF4EB54260D08026DB
:1014200036043743B846382B00DC3EE143461343CD
:101430001F007A1E97413F18874280414042091899
:101440000B0200D4B0E0A44B01359D4200D1C3E0B3
:10145000A24A7B080A4001210F401F435108D307CD
:1014600007221F433A4099E79B4EB54238D0802669
:1014700036043743B846382B00DDDCE01F2B00DC98
:1014800030E11E004746203EF740BC46202B04D0EA
:101490004026F31A46469E403243170063467A1EA2
:1014A00097411F43CCE0002B00D104E24346134395
:1014B00000D159E14B07C00818438023C9081B031A
:1014C000194208D04546ED081D4204D14346D008D4
:1014D000590708432900420FC9007F4D1143C0003E
:1014E0004B07CA087C49C00803438D4268D01203E9
:1014F0006D05120B6D0D002112031800130B0A0D60
:1015000012051A43764B2D0513402B435B00E4076D
:101510005B08234319001CBC90469946A246F0BDC7
:101520003E00164312D05E1E002E00D000E1871848
:101530008742804141444042091801250B0233D5BE
:10154000022585E764463300414610001D00C7E7C9
:10155000002D00D0DAE00C000443F3D05C1C00D175
:101560009FE15D4CA64200D12FE1DB43382B00DD2B
:1015700066E11F2B00DD83E120240500E41A0F0043
:10158000DD40D940A0404346A7405B1A441EA0411D
:1015900098462F433843171ABA4292414346524263
:1015A000991A64463500CAE607223A40002A00D05C
:1015B000F6E64B07CA084849FF083B438D4296D1DF
:1015C0001900114300D19EE1802109030A4312034F
:1015D000120B414D8FE71500002200238BE7002BF3
:1015E00000D0C7E06B1C5F057F0D012F00DCF1E030
:1015F000394DAB4200D1B9E085180A0085428941D6
:101600004244494251180722CF076D082F43490829
:101610003A401D00C2E607223049ED1A31403A40F7
:10162000BCE63E002838864000279FE6380001F0DF
:1016300003FD20308EE6434613431F007A1E974178
:10164000C71BB84280414042091A78E60E003B00B1
:1016500006431343002D61D1002E00D0F4E0002B8F
:1016600000D11BE164463900100039E71A4FBB4234
:101670007AD03300FFE630001F3DE840202B03D036
:101680004021CB1A9E4037437B1E9F4107220743D0
:101690003A400021002589E7171A4346BA42B6416D
:1016A000591A76428E1B64464EE61F2B00DDADE0D4
:1016B00020264746F61AB740B9461700B246DF4023
:1016C0004E463E4337005646B240561EB24117437F
:1016D0004246DA408918AEE6FF070000FFFF7FFFB1
:1016E000FFFF0F8020264746F61AB740B94617007D
:1016F000B246DF404E463E4337005646B240561E85
:10170000B24117434246DA40891A99E77F4CA64214
:101710005BD0802424045B42214327E7002E0CD1B8
:10172000002B00D1CBE0644639001000774DD7E69E
:10173000764FBB4218D0330075E6002B14D04B0710
:10174000C00818438023C9081B03194207D0FC08AE
:101750001C4204D17907D0080843E14621004C46D9
:10176000420FC9001143C000684DB9E61D000022B8
:101770000023C0E6002D5BD10D00054300D1E2E659
:101780005D1C00D1B0E0614DAE421FD0DB43382B71
:1017900071DC1F2B00DD96E020250F00ED1AAF4015
:1017A000B9460700AA46DF404D463D432F00554647
:1017B000A840D940451EA84188440743BF18974216
:1017C00092415142414435003AE664463500414673
:1017D000100085E60B000343002D00D063E6002BCC
:1017E000F5D04346134300D17AE6871887428041FB
:1017F00007224144404209183A400B0200D4D5E682
:10180000434B01351940C9E5380069E61E004746DB
:10181000203EF740BC46202B04D04026F31A464613
:101820009E403243170063467A1E97411F4302E6EB
:10183000364DAE42CAD080252D045B422943A6E72F
:101840000843411E8841A6E6002B00D148E6871ACE
:101850004346B842B641CB1A76429E1B33024BD563
:10186000171A4346BA429241591A5242891A07221C
:1018700064463A4092E501430F00791E8F419DE78F
:101880001C000F00203CE740202B03D04024E31A2B
:1018900099400843411E884138437CE600220024D9
:1018A00025E6171A4346BA429241591A5242891AFA
:1018B0006446350043E541461000144D10E6802291
:1018C0000024120380E61D000F00203DEF40BC46BF
:1018D000202B03D04025EB1A9940084307006346AC
:1018E000781E87411F4369E7871897429B4141440F
:1018F0005B42C9183500A3E53B003343CED0072235
:1019000031003A4052E600231A00F4E5FF070000D8
:10191000FFFF7FFFF0B55746DE464E464546E0B531
:10192000834607000E03480085B092461C00360B24
:10193000400DCD0F002800D19DE0954B984239D045
:101940008023F6001B041E43924A7B0F33439946C3
:10195000944603006344009300230026FF00029393
:1019600023031B0B98466300E40F52465B0D019462
:1019700000D1B3E086498B4200D19EE04246D100BF
:10198000802212040A435146490F11438B46814974
:1019900052468C4600996344CB1A0021D200009332
:1019A0002B0063409A460F2E00D905E17A4BB60012
:1019B0009B599F465B463343994600D0B8E00223CB
:1019C0000826002700900293CAE7CB463A00029906
:1019D0000195019B9A46022927D0032900D180E274
:1019E000012944D06D49009B8C4663441C00002CA7
:1019F00038DD530700D013E2D2085B46DB0109D57E
:101A00005946674B19408B468021C9008C46009B84
:101A100063441C00634B9C4207DC5B4664055F0724
:101A20005B0217431B0B620D02E000230027584A9C
:101A300000211B031C0B0B0D1B05234314055A4AE5
:101A4000380013401C4353466400DB0764081C4302
:101A5000210005B03CBC90469946A246AB46F0BD7D
:101A60000122524201231B1B382B00DCADE1002276
:101A700000230027DCE75B46334399465ED0002E07
:101A800000D18AE1300001F0D7FA03000B3B1C2B98
:101A900000DD7BE11D22D31A5A460100DA400839E5
:101AA0008E4013005F46334399468F403F4B0026DC
:101AB0001B1A00930023029352E7414653460B43FF
:101AC0003B499B468C46009B634400935B46002B3E
:101AD0003BD1022300221E43022161E74346134308
:101AE0009B4637D04346002B00D162E1404601F0CF
:101AF000A3FA03000B3B1C2B00DD53E1020041461F
:101B0000083A914088461D21CB1A5146D9400B0016
:101B100041460B439B46534693401A00009B254980
:101B20009C46604403008C4663440093002137E7E1
:101B30000323B14600900C26029311E70023009383
:101B400001330426002702930AE70323C3461E43FA
:101B5000032125E701331E430022012120E7002352
:101B60009A46802300271B03094A61E780234946E0
:101B70001B03194200D1E2E05946194200D0DEE0D1
:101B80000B431B0317001B0BA246014A50E7C0463C
:101B9000FF07000001FCFFFF449B0008FF0300005B
:101BA000FFFFFFFEFE070000FFFF0F800DFCFFFFA1
:101BB00001F8FFFFF3030000D94500D9CBE000D1C5
:101BC000C6E03C0048460027009B013B00935B4673
:101BD000160E1B021E431302984633041B0C994633
:101BE000310C0191FEF728FB4A4642430B04210CBD
:101BF000050019438A4207D98919013D8E4203D84D
:101C00008A4201D9851E8919881A0199FEF714FBA9
:101C100009048C464A46210464464243090C0300E9
:101C200021438A4204D98919013B8E4200D8F1E050
:101C30002D041D43AB464346891A4246280C120424
:101C40001D0C5B46140C22001B041B0C5A4303940E
:101C50006B434443029568431B19150CEB189C42D7
:101C600003D980246402A44660441C0C15041B04A0
:101C70002D0C20185D19814277D373D00C1AA24A1B
:101C80007D1BAF42BF419446009B7F426344E01BF3
:101C90001C00864200D1DBE00199FEF7CDFA4A46EE
:101CA00042430B04290C070019438A4207D98919BA
:101CB000013F8E4203D88A4201D9871E8919881AAA
:101CC0000199FEF7B9FA09044A46894629044D46A6
:101CD0004243090C030029438A4207D98919013B71
:101CE0008E4203D88A4201D9831E89193F04891A7A
:101CF0003A00039F1A43380013041B0C58438146D3
:101D00000298150C6F43434345434846000C8446F4
:101D1000DB1963449F4203D9802040028446654416
:101D200048461F0C00041B04000C7D191818A9421A
:101D300000D284E000D17FE001231A4357E68023DC
:101D40004A461B0313431B031B0BAA466F4A6FE64D
:101D5000BA4200D935E74B46DC0758087B081C43DC
:101D6000FF0734E70024AF4289D247444745A441E6
:101D70005B466442A4196418013BA6421ED2A042ED
:101D80006DD800D1B6E0241A9B4678E703005A4686
:101D9000283B9A400027914688E6584601F04CF9C6
:101DA000203072E603005246283B9A4093460022B8
:101DB000B4E6504601F040F920309AE6A642E2D15E
:101DC000B845DCD9341A9B4659E71F2B65DC504CCB
:101DD0000099A4465C46614408008C401100824092
:101DE000D940501E82410C4314435A46DA40130036
:101DF000620709D00F222240042A05D02200141DB8
:101E00009442894149425B181A0262D5012200239B
:101E100000270DE68A4200D80AE7831E891907E7E2
:101E20000F231340042B00D1E6E5171D9742924182
:101E300053429B44FA08E0E5002800D1D7E5711829
:101E4000531EB14227D3A94215D358D01A0073E7C5
:101E5000002B00DC04E6012300229B44CDE5022395
:101E60004744474589415B429C46494289190C19C0
:101E7000E344241A03E743465F0047459B41B846C5
:101E80005B429E19023A8919A94200D054E74045A5
:101E900000D051E7ABE51A00F6E71F215F46494243
:101EA0000C1BE740202B07D01A49009B8C4663444B
:101EB00018005B4683401A43501E82413A4307276D
:101EC0000023174009D00F210023114014000429DA
:101ED00095D122005F075B021B0BD208174300223B
:101EE000A6E5802359461B030B431B0317001B0B5E
:101EF000064A9DE5BD42B2D89B460024BFE6804518
:101F0000B9D31A00C3E7C046FF030000FF07000073
:101F10001E0400003E040000F0B54F464646D6467B
:101F20008446C0B58046194E18030F034D00000BC0
:101F30005C0082463F0B6D0DC90F9146640DDB0FAF
:101F40000120B5420AD0B44203D0A54201D1574581
:101F50000CD01CBC90469946A246F0BD66463E4356
:101F6000F7D1AC42F5D154461443F2D10120C84513
:101F7000EFD1994207D0002DEBD163461F433800C3
:101F8000471EB841E5E70020E3E7C046FF07000031
:101F9000F0B54F464646D6464D00C0B50E03C90FB4
:101FA0008A462C491F035C008046360B6D0D914616
:101FB0003F0B640DDB0F8D421ED08C4216D0002DDE
:101FC0001ED130438446002C01D13A4323D06246CF
:101FD000002A1AD09A4529D05146022001390840DA
:101FE00001381CBC90469946A246F0BD3900114309
:101FF000E5D002204042F4E73043FAD1AC420FD0A2
:10200000002C0FD13A43E7D00CE00122013B93436F
:1020100018000130E5E763460020002BE1D0DBE744
:102020003A43E6D19A45D7D1A542D5DCA54205DB96
:10203000BE42D1D808D00020BE42D2D250460123A1
:10204000013898430130CCE7C845C5D80020C845C1
:10205000F4D3C6E7FF070000F0B54F464646D64624
:102060004D00C0B50E03C90F8A462E491F035C0000
:102070008046360B6D0D91463F0B640DDB0F8D4294
:1020800018D08C4211D0002D18D130438446002C3A
:102090001ED13A431CD163460020002B30D051465C
:1020A00002200139084001382AE039001143EAD002
:1020B000022025E03043FBD1AC4226D0002C26D1B3
:1020C0003A4324D15146022001390840013817E033
:1020D0006246002A0FD09A45E1D1A54205DBBE42F7
:1020E000DDD819D00020BE420AD250460123013863
:1020F0009843013004E00122013B93431800013072
:102100001CBC90469946A246F0BD3A43D0D19A45B0
:10211000C5D1A542C3DCE0E7C845C0D80020C8450A
:10212000E3D3EDE7FF070000F0B55746DE464E4625
:102130004546E0B5834606000F03480087B0924647
:102140001D003F0B400DCC0F002800D16FE0DE4B8F
:10215000984238D08023FF001B041F43730F3B437A
:102160000193DA4B0027994600239B46F6008144F1
:102170002B0369001B0B52469846490DED0F0029B1
:1021800000D185E0D04B994200D173E04346DA009C
:1021900080231B0413435246CC48520F84461343FA
:1021A000524600206144D2008944210069400091D8
:1021B0008C46012149448A460F2F00D990E0C4493A
:1021C000BF00CF59BF465B463B43019300D06AE155
:1021D00002230827002681469B46C9E7320058465D
:1021E000019B61460091022800D175E0032800D1CF
:1021F000FEE1012800D02CE1002300270026002565
:102200003F032A0D3F0BB34812053A4302401B051A
:102210001343009A5B00D1075B080B4330001900A1
:1022200007B03CBC90469946A246AB46F0BD5B4623
:102230003B43019300D12FE1002F00D1A5E13800ED
:1022400000F0FAFE03000B3B1C2B00DD96E11D2283
:10225000D31A5A460100DA405E4608398F4013000F
:102260008E403B4301939C4B00271B1A9946002349
:102270009B467DE7414653460B4393498C46E144D8
:10228000002B00D01AE102220220174300228CE723
:10229000134300D10DE14346002B00D181E14046BC
:1022A00000F0CAFE02000B3A1C2A00DD72E10100B8
:1022B000434608398B4098461D239A1A5346D3400B
:1022C0001A004346134352468A404946081A824937
:1022D00089468144002068E77B4B002700268EE773
:1022E000140C1204120C1100370C3604350C79430F
:1022F00028008C462E0060436044834656432100EC
:10230000300C80465846794340440291844506D9B2
:102310008846802149028C46E044414602913604B9
:10232000010C360C00048B4681191E0C1B041B0C7F
:102330000391190079438C46280075436544A846EB
:102340005843050C45447743A94203D980214902EB
:102350008C466744290C8C4639000004000C2D047F
:102360002D186144AB4405915946049101990F041D
:102370003F0C080C390051434243904602008C4602
:10238000090C8B4662437C4344445C44A04503D91A
:102390008021490288464244210C8846614609044E
:1023A000090C8C4639005943434370437E430F0C5C
:1023B000F6182404BE19644442448C46B34203D93F
:1023C00080235B0298464044029B61469846049BEA
:1023D000370443449B46AB45AD416B420D04059920
:1023E0002D0C8C467F196744FD18A8465D462D19B3
:1023F000A542A44193466442A446C344DC448F42B0
:10240000BF4198459B4193459241A445A4415B42FD
:102410007F421F43360C52426442BF192243BF1809
:10242000624638184302D20D039913436A020A43E5
:10243000501E82416146ED0D2A434E023243D901BE
:1024400000D4B3E00126500832400243DE07324395
:102450005B08224C5444002C62DD510709D00F2048
:102460001040042805D0101D9042924152429B1802
:102470000200D90104D580241948E40003405444E3
:102480001848844200DD27E75E075B02D2081F0B75
:10249000630516435B0DB2E600239946013304271A
:1024A00000269B4664E60323019781460C279B4642
:1024B0005EE6012201201743002276E60323032073
:1024C0001F43434671E6C046FF07000001FCFFFFC3
:1024D000849B0008FFFF0F800DFCFFFFFF0300003F
:1024E000FFFFFFFEFE0700000023802700933F034D
:1024F0000026434B83E6019B3200A446584670E613
:10250000AC466EE6802701993F0339422DD03B420D
:102510002BD11F433F033F0B00951600384B6EE64F
:1025200001252D1B382D00DD66E61F2D40DC3548CA
:102530001C005044160082408440EE40501E8241F0
:1025400034431443EB40620709D00F222240042A8F
:1025500005D02200141D9442804140421B181A02EB
:102560003ED501230027002649E68027019B3F0333
:102570001F433F033F0B0094214B40E603005A46A4
:10258000283B9A40002601926DE6584600F054FD23
:10259000203057E603005246283B9A4013000022A1
:1025A00093E6504600F048FD20307BE6CA4650E7EF
:1025B0001F201E004042041BE640202D03D0124C79
:1025C0005444A3401A43501E824132430726002739
:1025D000164009D00F200023104014000428B9D160
:1025E00022005E075B021F0BD2081643002306E69B
:1025F00080273F031F433F033F0B1600004BFEE5C0
:10260000FF0700001E0400003E040000F8B5574616
:102610004E464546DE460C000903E0B5490A460F22
:102620005F0031431E03DB0F760A9B46530F334393
:10263000C84E6500C000E40FD2006D0DA246814671
:102640007F0D9C469046B74200D1B9E05B4601261B
:1026500073409B46EE1BA34500D183E0002E63DD53
:10266000002F00D0B1E06346134300D123E1731E75
:10267000002B00D0BAE1861A6346B04280410125A2
:10268000C91A4042091A0B0200D447E149024B0A19
:1026900098464346002B00D189E1404600F0CCFC2F
:1026A0000300083B1F2B00DD7CE120223000D21A02
:1026B0004146D040994002009E400A439D4200DDC1
:1026C0006AE15D1B6B1C1F2B00DD94E120211000D3
:1026D0003500C91A8E40DA408840DD40711E8E41B7
:1026E000110007222843002506433240002A09D062
:1026F0000F233340042B05D0331DB342B64176423D
:1027000089191E000B0200D43DE26A1C914B55054D
:102710006D0D9A4200D119E18F4AF6080A40570719
:1027200052023743120B9BE0002E00D0C5E06E1C16
:102730007605760D012E00DC48E16746861ACB1B34
:10274000B042BF417F42B8461F004346FF1A3B00DC
:10275000B8461B0200D55FE137439AD1002200241E
:10276000002579E0002E00DCFAE0002F00D18DE09A
:10277000784B9D4267D0802367461B041F43BC46AD
:10278000382E00DC52E1634613435A1E93411E1853
:1027900086428041404209180B0200D4BEE06D4BD6
:1027A00001359D4200D1D2E06B4A73080A400121F5
:1027B0000E401E435108D30707221E43324095E7BF
:1027C0001E00164300D045E740E7624B9D423AD0D9
:1027D000802367461B041F43BC46382E00DDEBE018
:1027E0001F2E00DC3AE133006746203BDF403B0010
:1027F000202E05D04027BF1B6646BE403243904680
:102800004646721E96413343DAE0002B00D114E2B3
:102810006346134300D168E180234E07C008C9080E
:102820001B030643194208D06046C008184204D171
:1028300063460100D2085E071643F3009946C900BB
:10284000720F444D11434B46DE08424B4F0737434E
:10285000CA089D4200D16EE012036D05120B6D0D8A
:1028600000211203130B0A0D12051A433B4B2D05D1
:1028700013402B435B00E4075B0823433800190037
:102880003CBC90469946A246AB46F8BD634613430E
:1028900011D0731E002B00D007E1861886428041BC
:1028A00061444042091801250B0237D502257BE718
:1028B0003E00614691463500C5E75C46002D00D0DC
:1028C000E1E00B000343F3D0731C00D1ACE1214BDA
:1028D0009F4200D13AE1F343382B00DD6FE11F2B1B
:1028E00000DD8CE120250E00ED1AAE40B04606005A
:1028F000AA46DE40454635432E005546D940A840FD
:102900006346451EA8415B1A9C463043161AB242E4
:10291000924163465242991A3D00B4E60722324082
:10292000002A00D0E4E60B4BF6084F073743CA08ED
:102930009D4200D090E73B00134300D1A6E18023E5
:102940001B031A431203120B024D89E715000022E4
:10295000002785E7FF070000FFFF7FFFFFFF0F80D5
:10296000002E00D0C7E06B1C5E05760D012E00DC4A
:10297000F0E0C84DAB4200D1B9E085180A008542AD
:1029800089416244494251180722CE076D082E43FF
:10299000490832401D00A9E6BF49ED1A114007223F
:1029A0003240A3E6320028388240002686E6300016
:1029B00000F042FB203073E6634613435A1E9341F6
:1029C000C61AB04280414042091A5CE60E006746D2
:1029D00006431743002D5ED1002E00D0F3E0002FF8
:1029E00000D11EE15C46614691462CE7A94FBE42EC
:1029F0007BD01E00F1E610001F3DE840202B03D0E5
:102A00004021CB1A9A401643731E9E41072206436B
:102A100032400021002583E7161A6346B242804106
:102A2000591A40420B1A98465C4632E61F2E00DDCA
:102A3000ABE02027BB1B9A4663465746BB409946EE
:102A400013004F46F3401F433B005746BA40571E02
:102A5000BA4113436246F240891898E62027BB1B0F
:102A60009A4663465746BB40994613004F46F3408B
:102A70001F433B005746BA40571EBA4113436246B4
:102A8000F240891A9CE7834B9F425FD080252D043A
:102A90007342294320E7002E0CD1002F00D1D0E053
:102AA0005C46614691467B4DCDE67A4FBE421CD0D6
:102AB0001E0065E6002F18D0C0084E070643802090
:102AC000C9080003014208D06346DC08044204D16F
:102AD0002100DA46D2085E071643F3009946012426
:102AE0005346C900720F11431C406A4DABE61D00EE
:102AF00000220027B4E6002D59D10B00034300D17A
:102B0000D6E6731C00D1B2E0624B9F421ED0F34365
:102B1000382B6FDC1F2B00DD97E020250E00ED1A0F
:102B2000AE40B0460600AA46DE40454635432E007C
:102B30005546A840D940451EA8418C440643B618C6
:102B400096429241514261443D0025E63D00614676
:102B5000914678E60B000343002D00D055E6002B8C
:102B6000F5D06346134300D16DE686188642804156
:102B700061444042091800220B0200D4D0E6464BC3
:102B800001351940B2E5B1465DE633006746203BAA
:102B9000DF403B00202E05D04027BF1B6646BE40CD
:102BA000324390464646721E96413343EFE5394B19
:102BB0009F42CBD080252D0473422943A8E70843C8
:102BC000411E8841A2E6002F00D13CE66346861AEA
:102BD000CF1AB0429B415B42FB1A98461B024ED56E
:102BE000161A6346B2429241591A5242891A5C46F9
:102BF00000227BE501430E00711E8E419FE71D0000
:102C00000E00203DEE40B046202B04D04025EB1AAC
:102C100099400843814648464346411E884118432F
:102C200074E60022002417E6161A6346B242924167
:102C3000591A5242891A3D0025E561469146154DC3
:102C400001E680220024120379E61D000E00203DDB
:102C5000EE40B046202B04D04025EB1A99400843A3
:102C600081464E464346711E8E411E4367E78618D5
:102C700096429B4161445B42C9183D008CE5474642
:102C80003743CED007224146324049E600273A007A
:102C9000E6E5C046FF070000FFFF7FFF70B50C4E62
:102CA0000D031C0349005B002D0B490D240B5B0D2C
:102CB000B14208D0064900208B4203D114432000C2
:102CC000441EA04170BD05430120002DFAD1F1E75B
:102CD000FF07000030B5144D0A034B00120B5B0DCB
:102CE000C90F0024AB4211DD104CA34210DC80243C
:102CF000640322430E4CE41A1F2C0CDD0D48C31A4A
:102D0000DA4013005C42002900D11C00200030BDD5
:102D1000094BCC18FAE7094DE040AC4663449A40B1
:102D200013000343EEE7C046FE0300001D0400004D
:102D30003304000013040000FFFFFF7FEDFBFFFFE3
:102D400070B500282DD0C317C5185D40C40F2800EA
:102D500000F072F9154B1B1A5B055B0D0A2815DD97
:102D60000B38854000222D032D0B002110002D0370
:102D70000A0D2D0B12052A430D4D1B052A40134346
:102D80005B00E4075B082343190070BD02002900C3
:102D9000153291400A000B21081AC5402D032D0B56
:102DA000E3E70024002300250022DEE71E040000E4
:102DB000FFFF0F8010B5041E25D000F03DF9144B25
:102DC0001B1A5B055B0D0A2812DD0B3884400022BC
:102DD0002403240B0021100024030A0D240B1205E8
:102DE00022430C4C1B05224013435B00590810BDC5
:102DF00002002100153291400A000B21081AC4403C
:102E00002403240BE6E7002300240022E2E7C04667
:102E10001E040000FFFF0F804100090E4B1C70B51F
:102E2000DBB24602750AC40F012B14DDE0239B00C0
:102E30006D07360BCB1800210A0D280012051C4D1A
:102E400032435B052A405B0813435B00E4075B08E1
:102E50002343190070BD002914D1002D1ED0280075
:102E600000F0EAF80A281CDC0B232A001B1ADA40BF
:102E7000030015339D400F4B12031B1A5B05160B05
:102E80005B0DD8E7002D06D0320B802636036D0788
:102E90001643094BCFE7084B0026CCE7002300265A
:102EA000C9E703002A000B3B9A400025E3E7C04630
:102EB000FFFF0F8089030000FF070000F0B54C0002
:102EC000640D0B03621C5B0A460F5205C90F1E43BB
:102ED000C500520D012A29DD374BE718FE2F1CDCF7
:102EE000002F3BDD8001431E98410722F3006D0F48
:102EF00003432B431A40002A04D00F221A40042A0D
:102F000000D004338022D2041A4024D00137FAB210
:102F1000FF2F02D09B01580A01E0FF22002040024F
:102F2000D205400AC90710430843F0BD3543002CC1
:102F300004D1002D0AD100220020F0E7002DECD0B2
:102F40008020C0033043FF22E9E7002400235B0216
:102F5000580AE2B2E3E7DB083C00F8E73B0017332E
:102F6000F3DB80231B0433431E26F61B1F2E14DDC8
:102F700002225242D71B1A00FA401700202E04D01A
:102F80000E4A94466444A3401D432B005D1EAB4192
:102F900007223B431A400027ADE7094A2800A21840
:102FA000954093406C1EA541F04007222B430343FC
:102FB0001A4000279FE7C04680FCFFFFA2FCFFFFEE
:102FC00082FCFFFF8446081C6146FFE71FB500F046
:102FD000D3F8002801D40021C8421FBD10B500F06D
:102FE00055F84042013010BD10B500F0C5F800287A
:102FF00001DB002010BD012010BDC04610B500F05F
:10300000BBF8002801DD002010BD012010BDC04626
:1030100010B500F063F8002801DC002010BD01208D
:1030200010BDC04610B500F059F8002801DA0020A4
:1030300010BD012010BDC0461C2101231B04984275
:1030400001D3000C10391B0A984201D3000A083939
:103050001B09984201D30009043902A2105C4018F0
:103060007047C04604030202010101010000000094
:103070000000000010B5002903D1FFF7DDFF20306C
:1030800002E0081CFFF7D8FF10BDC04670B5420033
:103090004E024C0045026D0A120EC30F760A240E32
:1030A000C90FFF2A0FD0FF2C11D00120A24200D05F
:1030B00070BDB542FCD18B420DD0002AF8D128005A
:1030C000451EA841F4E70120002DF1D1EBE70120D6
:1030D000002EEDD1E9E70020EAE7C04670B54A00CE
:1030E0004E02450244006D0A240EC30F760A120EEA
:1030F000C90FFF2C15D0FF2A0ED0002C15D1002AA5
:1031000001D1002E1CD0002D14D08B4227D00220DC
:10311000013B1840013870BD002EEED00220404225
:10312000F9E7002DFAD1FF2A0ED0002A0ED1002E89
:10313000EDD00BE001230139994308000130EAE7A3
:103140000020002DE7D0E2E7002EE7D18B42DED150
:10315000944205DD0221581E08400138DBE70024B7
:10316000A24204DCB542D2D80020B542D3D2581EC8
:10317000012398430130CEE730B5420044024D02AE
:10318000C30F4800640A120E6D0A000EC90FFF2A11
:1031900012D0FF280CD0002A12D1002819D1002DFE
:1031A00017D1002C2BD00220013B1840013826E01B
:1031B000002DF0D0022022E0002CFBD1FF281FD0F0
:1031C00000281FD1002D1DD10220013B18400138DD
:1031D00015E0002C0ED08B42E5D10022904204DC99
:1031E000AC42E0D80020AC4209D2581E01239843DB
:1031F000013004E00123013999430800013030BD5A
:10320000002DD7D18B42CED18242E7DD0221581E5C
:1032100008400138F3E7C04670B500260C4D0D4C50
:10322000641BA410A64209D1002606F0E9FB0A4D52
:103230000A4C641BA410A64205D170BDB300EB5824
:1032400098470136EEE7B300EB5898470136F2E7AE
:103250006CA000086CA000086CA0000870A000081A
:1032600003001218934200D1704719700133F9E737
:10327000F0B58BB014001D1E129953DA8024240679
:103280001B191D0014002D230B702023149E0322F4
:103290009E43462E07D03300453B59424B4110997F
:1032A000013ACB18109309AB049308AB0393139B1B
:1032B00000920293109B220001932B0000F0BCFCB3
:1032C0000700472E02D1119BDB0724D5109BFB186A
:1032D0000793462E14D13B78302B0CD100220023CB
:1032E00020002900FDF7A8F8002804D10123109A36
:1032F0009B1A139A1360139B079A1B68D3180793A2
:103300000022002320002900FDF796F83022002833
:103310000DD0079B09933800099B159ADB1B13609E
:103320000BB0F0BD0023AFE7591C09911A70099B3F
:1033300007998B42F8D3EEE7F0B5831C85B0019373
:1033400006000C0002702B23002901DA2D234C42C9
:103350007370092C22DD02ABDD1D20000A21FDF770
:1033600055F86F1E3031397020000A21FCF768FFD4
:10337000040009280BDC023D3034019B2C7002AAAA
:1033800007321800AA4204D8801B05B0F0BD3D00EA
:10339000E3E72A7801351A700133F0E73023E418A7
:1033A000B370301DF470EFE7F0B595B00C000A92E1
:1033B0000B931A9D099001F021FA036818000C93F1
:1033C000FCF7A2FE0023129323680E900D930D9933
:1033D000277E2B680722C90545D59B1893431A0001
:1033E00008322A601A685B68A264E3640122E56C13
:1033F000A66C6B005B080F935242AC4B30000F99E8
:10340000FFF74CFC002830D10122A84B524230007B
:103410000F99FDF721F8002827D100220023300062
:103420002900FDF70FF8002803D023002D22433395
:103430001A709F4D472F00D89E4D032300260D9AEA
:10344000236101339A4322600B9B13AA009321004E
:103450000A9B099800F0F4F9431C00D093E0012086
:10346000404215B0F0BD0733B8E732002B00300002
:103470002900FFF713FC002804D08F4D472FDCD81C
:103480008E4DDAE780230D996268DB000B43511CF7
:1034900043D10732626012AA0021059211AA039259
:1034A000232223600691019308A9636852180292AF
:1034B000009332002B0004970998FFF7D9FE2023D0
:1034C0003A0005009A43472A07D1119BDA1C02DB18
:1034D0006268934245DD023FFFB21199652F25D8FE
:1034E000200001393A0050301191FFF725FF129A60
:1034F000060013182361012A02DC2268D20701D5D5
:1035000001332361232308AA9B181B78002B9BD02F
:1035100023002D2243331A7096E7672F00D176E1FE
:10352000472FB8D1002AB6D10122B3E7662F19D1AF
:10353000636800290CDD2161002B02D12268D207CB
:1035400002D501335B182361119B0026A365D9E7DF
:10355000002B03D101222168114200D09A1C226164
:10356000F2E76727119B129A934205DB22682361D9
:10357000D207E9D50133E6E70121002B01DC491828
:10358000C91A5218EBE72268530508D423692A00A8
:103590000A9909980B9DA847431C29D15FE7652F1D
:1035A00000D8E0E0A06CE16C00220023FCF744FFAF
:1035B000002834D00123424A0A9909980B9DA84754
:1035C000431C00D14BE7119B129A934202DB236804
:1035D000DB070DD50B9D0E9B0C9A0A990998A847FD
:1035E0000025431C00D13AE7129B013BAB420ADCA9
:1035F00023689B0700D508E1139BE068984200DB35
:103600002FE718002DE7220001231A320A990998A2
:103610000B9EB047431C00D121E70135E4E7119B25
:10362000002B2DDC0123264A0A9909980B9EB047EE
:10363000431C00D113E7119B002B05D1129B002BDB
:1036400002D12368DB07D3D50B9E0E9B0C9A0A99F7
:103650000998B0470026431C00D100E7119B5B424C
:10366000B34201DC129B92E7220001231A320A992D
:1036700009980B9FB847431C00D1F0E60136EDE7EF
:10368000A36D129F9F4200DD1F00002F08DD3B004D
:103690002A000A9909980B9EB047431C00D1DEE628
:1036A00000230D93FB43DB170F9318E0FFFFEF7F21
:1036B000CC9B0008C89B0008D49B0008D09B000846
:1036C000D89B0008220001231A320A9909980B9E00
:1036D000B047431C00D1C2E60D9B01330D930F9BF5
:1036E000A66D0D9A3B40F31A9342EBDC119B129AA4
:1036F000AD19934210DB2368DB070DD4129F119B99
:10370000BE1BFF1AB74200DD3700002F0DDCFE4361
:10371000F31700250C931CE00E9B0C9A0A9909984C
:103720000B9FB847431CE9D199E63B002A000A9950
:1037300009980B9DA847431CE9D190E6220001237C
:103740001A320A9909980B9EB047431C00D186E6AD
:103750000135119A129B0C999B1A3A000A409B1A48
:10376000AB42EBDC44E7129B012B02DC01231A4243
:1037700032D001232A000A9909980B9FB847431CAD
:1037800000D16CE60E9B0C9A0A9909980B9F0135A3
:10379000B847431C00D162E6A06CE16C129B00228A
:1037A0005F1E0023FCF748FE3B00002814D00025D4
:1037B0000AE0220001231A320A9909980B9FB847A0
:1037C000431C00D14BE60135129B013BAB42F0DCC0
:1037D000220033005032DBE62A000A9909980B9D3B
:1037E000A847431CF4D13AE62200012319320A9972
:1037F00009980B9EB047431C00D130E60135E368C1
:10380000139A9B1AAB42EFDCF6E60025F7E7002A95
:1038100000D189E60021069112A9059111A9039111
:10382000232108A809182360019300922B00049714
:10383000029132000998FFF71BFD050045E6C046DE
:10384000F7B5150001938A680B6900900C0093424C
:1038500000DA130022002B6043321278002A01D0D4
:1038600001332B6023689B0602D52B6802332B6043
:10387000062723681F4027D0230043331B785A1E96
:1038800093412268920630D4220001994332009875
:10389000089EB047431C25D0062320682A68E168AB
:1038A00003400025042B03D18D1AEB43DB171D4089
:1038B000A3682269934201DD9B1AED180027BD42DF
:1038C00020D1002010E00137E3682A689B1ABB4230
:1038D000D2DD22000123193201990098089EB047D9
:1038E000431CF0D101204042FEBD3020E11843319D
:1038F000087021005A1C45310978A218433202335E
:103900001170C1E7220001231A3201990098089E24
:10391000B047431CE6D00137D1E70000F0B589B0CD
:1039200004920A0043320593039002920A7E0C002F
:103930000E9B6E2A00D186E01FD8632A33D008D8A8
:10394000002A00D18CE0582A4DD0250042352A703B
:1039500030E0642A01D0692AF7D1196825680A1D68
:10396000280629D508681A60002803DA2D23029A50
:10397000404213706B4E0A274FE0732A74D008D868
:103980006F2A1FD0702AE0D1202209680A432260E2
:1039900003E0752A16D0782AD7D122007821453243
:1039A0001170614E22E025001A684235111D196020
:1039B00013682B70012365E008681A606906D3D587
:1039C00000B2D1E719682568081D186008682E063E
:1039D00005D5544E08276F2A1BD00A2719E06D061B
:1039E000F7D580B2F5E745314E4E0A701868226867
:1039F000011D00681960150621D5D30702D52023C3
:103A00001A4322601027002803D1202322689A43FA
:103A100022602300002243331A706368A360002BE6
:103A200058DB0422216891432160002854D1029D73
:103A3000002B5AD02500337842352B7055E05506BF
:103A4000DBD580B2D9E71A680D68101D4969186086
:103A500013682E0601D5196002E06D06FBD51980AA
:103A60000023029D23614FE01A68111D196015683B
:103A700000216268280000F0D7FE002801D0401B1A
:103A80006060636823610023029A13703CE023693D
:103A90002A0004990398059DA847431C3ED023683B
:103AA0009B0715D4079BE068984239DA180037E085
:103AB00022000123193204990398059EB047431C44
:103AC0002CD00135E368079A9B1AAB42F0DCE9E79A
:103AD0000025F7E70028ADD0029D3900FCF7ACFBCC
:103AE000735C013D2B700028F7D1082F09D12368A2
:103AF000DB0706D563682269934202DC3023013D6F
:103B00002B70029B5B1B2361059B07AA009321007E
:103B1000049B0398FFF794FE431CB8D10120404258
:103B200009B0F0BDDA9B0008EB9B0008F0B5036913
:103B30000C6989B0070005910026A34265DB0B00E4
:103B4000013C1433A50003935B1904930300143361
:103B500002935D19049B28681B68591C0193FCF7AC
:103B6000E5FA0190B04229D0039B02989C46069644
:103B7000624608CA9446019A99B251431B0C5343BA
:103B800089190A0C9B1807931E0C036889B29AB214
:103B9000069BD2180368521A190C6B469B8BCB1AE2
:103BA00011145B18191492B21B041A43049B06915A
:103BB00004C06345DCD22B68002B2DD0059938005A
:103BC00001F098F800281FDB0025019B02980133C3
:103BD00003990193026808C992B255199AB2AA1AB8
:103BE00005681B0C2D0CEB1A15145B191D1492B2F1
:103BF0001B04134308C0049B8B42EBD2029AA30020
:103C0000D3181A68002A11D0019E300009B0F0BD07
:103C10002B68002B04D1013C029B043DAB42F7D33F
:103C20003C61CBE71A68002A04D1013C029A043BAC
:103C30009A42F7D33C61E7E7F0B516001F00446AEB
:103C40009BB00290239D06960797002C08D1102068
:103C500000F0E0FD029B5862446084600460C46030
:103C6000029B5B6A196800290BD05A6801239340B4
:103C70004A608B60029800F023FE0022029B5B6A80
:103C80001A60002F20DA01232B607B005B0807936A
:103C9000079CB24B220017931A409A4217D1B04B9F
:103CA000229A1360069B002B03D1240301D100F05C
:103CB00087FDAC4B249A0893002A02D0AA4B249A81
:103CC000136008981BB0F0BD00232B60E0E7069E50
:103CD000079F0022002330003900FCF7ADFB051ED2
:103CE0000BD00123229A1360A04B249A0893002A38
:103CF000E7D09F4A24990A60E3E718AB019319AB18
:103D0000009332003B00029801F0E4F86300039056
:103D10005B0D74D03A03974C120B14432100964A62
:103D2000300016959E180022944BFEF76FFC944AC3
:103D3000944BFEF7F9F9944A944BFDF7CFFA04003F
:103D400030000D00FEF7FCFF914A924BFEF7ECF9B4
:103D500002000B0020002900FDF7C0FA04000D004E
:103D6000FEF7B8FF00220700002320002900FCF71F
:103D700069FB002809D03800FEF7E2FF2B00220083
:103D8000FCF75AFB434258413F1A01231493162F64
:103D90000DD88149FB00C91808684968069A079B35
:103DA000FCF764FB002846D00023013F1493189BC6
:103DB0009E1B00230A933300013B0B9304D5012380
:103DC0009B1B0A9300230B93002F36DB0B9B119751
:103DD000DB190B9300230493209B0124092B00D9AA
:103DE00084E0052B02DD0024043B2093209B981ED9
:103DF000032800D984E0FCF78FF97577286A189BAF
:103E0000199A9E18654BF218202A0FDD40239B1A41
:103E10009C40634B0698F318D8402043FEF7CAFF36
:103E20000123604C013E091916937CE72023069874
:103E30009B1A9840F2E71490B9E70A9BDB1B0A93A0
:103E40007B42049300231193C6E701230D93219B2A
:103E5000002B59DD0C930993029A556A00226A607F
:103E60000432100014306968984252D9029800F068
:103E7000EFFC029B28605B6A1B680893099B0E2B72
:103E800000D90AE1002C00D107E1069B079C1293A0
:103E90001394002F00DC89E00F213A003E4B0A40CA
:103EA000D2009B181D685E6802233C110E93E30646
:103EB0000BD53D4B0C401A6A5B6A12981399FDF7BB
:103EC00029FD0323069007910E9300233AE0012376
:103ED0000D93219BFB180C9301330993002BBBDC42
:103EE0000123B9E70023B1E70023F1E700230D9494
:103EF0002093013B00220C93099313332192ABE7EB
:103F000001230D93023BF5E701230C9309931A005B
:103F1000F4E7013169605200A3E701231C420ED08F
:103F20000E9B214A01330E93109B2800DB009B1847
:103F300031001A685B68FEF7F7F805000E00109B69
:103F4000641001331093002CE7D1069807992A00DA
:103F50003300FDF7DFFC0690079142E00000F07FA0
:103F60000F270000059C0008089C0008D89B00084B
:103F7000D99B00080000F03F01FCFFFF0000F83F64
:103F800061436F63A787D23FB3C8608B288AC63F5F
:103F9000FB799F501344D33F389C00083204000043
:103FA00012040000000010FE109C000802230E9373
:103FB000002F16D0129813997C420D332340CE4A1D
:103FC000DB00D3181A685B68FEF7AEF80023012601
:103FD0001D00069007912411002C00D08CE0002BCE
:103FE000B9D1149B002B00D196E0069C079D0022BE
:103FF000C24B20002900FCF725FA002800D18BE0F5
:10400000099B002B00D187E00C9B002B41DDBC4BB2
:10401000002220002900FEF787F80E9B06900791EA
:1040200001330E930C9B7E1E0E981093FEF788FEB4
:10403000069A079BFEF778F80022B24BFDF74EF97F
:10404000B14A0E900F910E9C0F9D94460F9B6344B6
:1040500015931D00109B002B61D106980799002233
:10406000AA4BFEF7D3FA2200159B06900791FCF7A6
:10407000FDF9002800D0A8E2A5480F9984466144C4
:104080000B00069807992200FCF7DCF9002800D005
:1040900095E2129B139C06930794199B002B00DA60
:1040A0005CE10E2F00DD59E1934BFA009B185C6830
:1040B0001B6804930594219B002B00DBD8E0099B2F
:1040C000002B00DDD4E000D07DE2049805990022A9
:1040D0008E4BFEF729F8069A079BFCF7D1F9099B4E
:1040E00004931E00002800D04FE2089B089A5D1C34
:1040F0003123013713704BE234420AD00E9B854ABC
:1041000001330E93EB009B181A685B68FEF70CF8FE
:104110003300641001355FE73E00099B84E7109B84
:104120000D995A1E744BD2009B181A685B680029BF
:1041300049D000207849FDF7EDFB2B002200FEF767
:1041400065FA089B0E900F91159306980799FEF754
:10415000C1FD0400FEF7F4FD02000B00069807996C
:10416000FEF754FA159B30345D1C1C700E9A0F9BA1
:1041700006900791FCF766F900286CD1069A079B18
:1041800000205E49FEF742FA0E9A0F9BFCF75AF99F
:10419000002800D0C3E0089B109AEB1A9A4200DC7A
:1041A00077E70E980F990022554BFDF7BDFF0022CF
:1041B0000E900F9106980799514BFDF7B5FF159595
:1041C00006900791C1E720002900FDF7ADFF089C8C
:1041D000109A230094460E900F916344159306980D
:1041E0000799FEF777FD0500FEF7AAFD0B00020018
:1041F00006980799FEF70AFA3035159B25700134A9
:1042000006900791A3422AD10E980F99089A109B05
:104210009446634400221D003F4BFDF75FF8020007
:104220000B0006980799FCF721F9002800D076E0EA
:104230000E9A0F9B00203849FEF7E8F902000B00A8
:1042400006980799FCF7FEF8002800D121E76B1EBD
:104250001A78302A01D037003FE01D00F7E70698B2
:1042600007990022264BFDF75FFF06900791B6E7FE
:10427000089E049A059B06980799FDF74BFBFEF7ED
:1042800029FD0400FEF75CFD049A059BFDF74CFF39
:1042900002000B0006980799FEF7B8F923003033A7
:1042A0003370099A089B751CEB1A9A4248D1020098
:1042B0000B00FDF713F8049A059B06900791FCF795
:1042C000D5F800282AD1049A059B06980799FCF78F
:1042D000B3F8002801D0E30720D40399029800F036
:1042E000EFFA00232B70229B01371F60249B002BC9
:1042F00000D1E6E41D60E4E4389C00080000F03FD3
:104300000000244000001C400000C0FC00001440DD
:104310000000C07C109C00080000E03F3E006B1EC7
:104320001A78392A06D1089A9A4207D13023137095
:10433000130001361A7801321A708CE71D00EEE77F
:104340000022A44BFDF7F0FE002200230690079107
:104350002E00FCF771F800288BD0BEE70D9A002ADA
:1043600000D1DAE0209A012A00DDBDE0169A002A89
:1043700000D1B5E0984A9B18049D0A9C0A9A012135
:10438000D2180A920B9A0298D3180B9300F076FB7E
:104390000600002C0EDD0B9B002B0BDD0B9A23007F
:1043A000944200DD13000A9AE41AD21A0A920B9A78
:1043B000D31A0B93049B002B1FD00D9B002B00D115
:1043C000AFE0002D11D031002A00029800F0EEFB82
:1043D000039A01000600029800F059FB039910901F
:1043E000029800F06DFA109B0393049B5A1B04D0B3
:1043F0000399029800F0DAFB03900121029800F083
:104400003DFB119B0490002B00D1E3E11A00010059
:10441000029800F0CBFB209B0490012B00DD82E092
:104420000025069BAB420ED1079B1B03AB420AD172
:10443000179B079A134206D00A9B013501330A9352
:104440000B9B01330B93119B0120002B6CD10B9B19
:1044500018181F2318407ED001331B1A042B70DD5F
:104460001C23181A0A9B24181B180A930B9B1B1851
:104470000B930A9B002B05DD1A000399029800F0AC
:10448000E7FB03900B9B002B05DD1A0004990298B3
:1044900000F0DEFB0490149B002B5ED0049903987F
:1044A00000F028FC002858DA00230A220399029819
:1044B00000F01FFA0D9B013F0390002B00D190E10B
:1044C000002331000A22029800F013FA0C9B060028
:1044D000002B00DD88E0209B022B00DC84E044E020
:1044E0003623189A9B1A47E7099B5D1E049BAB4233
:1044F00008DB5D1B099B002B0CDA0A9B099A9C1AAE
:1045000000233BE7049B0495EA1A119B00259B18A6
:104510001193EFE70A9C099B30E7049D0A9C0D9ECE
:1045200037E7049A64E70025049B049A1B691093FB
:1045300003339B00D318586800F057FA2023181A49
:1045400085E7042B95D00A9A1C33D2180A920B9A4D
:10455000E418D3188CE70300F5E7099B002B3DDC3A
:10456000209B022B3ADD099B0C930C9B002B0CD15A
:1045700004990522029800F0BCF904900100039808
:1045800000F0B8FB002800DDAFE5219B089DDF436C
:10459000002309930499029800F092F9002E00D1AB
:1045A0009BE6099B002B05D0B34203D0190002986B
:1045B00000F086F93100029800F082F98DE6109B38
:1045C00004931E00E1E70023FAE7109B37000493F1
:1045D0001E008AE500002440330400000D9B002BE0
:1045E00000D1B2E0099B0C93002C05DD31002200C4
:1045F000029800F02DFB06003000002D11D07168EC
:10460000029800F025F93100040033690C319A1C3E
:1046100092000C3000F013F901222100029800F002
:1046200017FB09960600089B0A9304990398FFF765
:104630007DFA09990D900400039800F05BFB3200AD
:1046400010900499029800F06FFB01230B93C3684C
:1046500030340500002B04D10100039800F04AFB20
:104660000B902900029800F02BF90B9B209A134322
:104670000ED1069A013313420AD1392C26D0109B51
:10468000002B01DD0D9C31340A9B5D1C1C7081E701
:10469000109B002B07DB1D00209B1D4322D1012313
:1046A000069A13421ED10B9B002BEDDD03990122CC
:1046B000029800F0CDFA0499039000F01BFB00284B
:1046C00002DCE1D1E307DFD5392CDBD10A9B0A9A62
:1046D0005D1C392313706B1E1A78392A67D001329A
:1046E0001A7057E70A9B5D1C0B9B002B04DD392CCD
:1046F000ECD001340A9BC9E70A9B0C9A1C70089BFA
:10470000EB1A93423ED000230A220399029800F04C
:10471000F0F8099B0390B34209D100230A220999BA
:10472000029800F0E6F8099006000A957DE70999DD
:1047300000230A22029800F0DCF8002309900A22E4
:104740003100029800F0D5F8EEE7099B0C93089B26
:10475000069304990398FFF7E9F9069B30305D1C36
:1047600018700C9A089B0400EB1A9A4208DD00238B
:104770000A220399029800F0BCF806950390E8E736
:104780000023099303990122029800F061FA049929
:10479000039000F0AFFA00289DDC01D1E3079AD422
:1047A0006B1E1A78302A00D0F4E61D00F8E7089A4C
:1047B0009A4203D1312301371370EBE61D008AE7DB
:1047C0000B4B249A08930B4B002A01D0FFF777FA82
:1047D000FFF777FA209B012B00DC21E6119D0120D9
:1047E00035E60C9B002BB2DC209B022BAFDDBCE638
:1047F000FC9B0008049C0008F0307047034B1B68CA
:10480000186A002800D10248F030704708000020E4
:104810006C00002010B5034B0100186800F066FC26
:1048200010BDC04608000020C9B28218904201D1D4
:104830000020704703788B42FBD00130F6E700235D
:1048400010B59A4200D110BDCC5CC4540133F8E7D6
:1048500070B5466A04000D00002E07D11020FFF746
:10486000D9FF6062466086600660C660666AF3686B
:10487000002B13D0636AAA00DB689B181868002815
:1048800018D101210E00AE40721D9200200000F0F0
:10489000D4FB00280CD0456086600DE02122042165
:1048A000200000F0CAFB636AF060DB68002BE1D1F6
:1048B000002070BD02681A6000230361C360F8E73E
:1048C00070B5446A06000D00002C07D11020FFF7D8
:1048D000A1FF7062446084600460C460002D07D052
:1048E000736A6A68DB6892009B181A682A601D6008
:1048F00070BDF7B51E0014239C4607000C00002075
:104900000D698C4463461B68013099B263461B688D
:1049100051431B0C534389190E0C9B1989B21E0C71
:104920001B045B18614608C18C468542EADC002EF8
:104930001BD0A368AB4212DC63683800591CFFF738
:1049400087FF2100236901909A1C92000C310C30E2
:10495000FFF775FF21003800FFF7B2FF019C2B1D08
:104960009B00E31801355E6025612000FEBDF7B5B0
:10497000060018000C000830092101931500FBF710
:104980005FFC0123002183421FDB3000FFF760FF43
:10499000089B436101230361092D19DD23000933BD
:1049A0001F00009364193B780100303B0A2230005D
:1049B0000137FFF79EFFA742F5D1009B5C19083C29
:1049C0002F00019B9F4206DBFEBD5B000131DAE751
:1049D0000A340925F4E7631BDB5D0100303B0A2242
:1049E0003000FFF786FF0137EBE70300020C0020E1
:1049F000824201D11B0410301A0E01D108301B0273
:104A00001A0F01D104301B019A0F01D102309B0013
:104A1000002B03DB01305B0000D42020704707220D
:104A2000036810B501001A400DD001240020234274
:104A300005D10230034203D0E34020000B6010BDDB
:104A40009B080B60FBE79CB21000002C01D11020EA
:104A50001B0CDAB2002A01D108301B0A1A0701D157
:104A600004301B099A0701D102309B08DA07E8D409
:104A70005B0801D00130E4E72020E0E710B50C002E
:104A80000121FFF7E5FE01234461036110BDF0B58C
:104A90000B691400126989B00D00934201DA2500F8
:104AA0000C002F6926696968BB190293AB68BA19B3
:104AB000934200DA0131FFF7CBFE0200BB1914323A
:104AC0009B00D3189C4600211300049063451DD31E
:104AD0001435BF00EB191434B6000593A3190395E0
:104AE00001940793079B0199994211D3029B002BD4
:104AF00006DD04235B429C4463461B68002B51D0B7
:104B0000049B029A18001A6109B0F0BD02C3DDE7E8
:104B1000019B1B6898B200281CD015000026039F3B
:104B200002CF2C688BB24343090C4143A4B21B193A
:104B30009B190E0029680695090C71181E0C89191D
:104B40000E0C9BB209040B4308C5059BBB42E7D87A
:104B5000069B5E60019B1B681D0C1ED01000002789
:104B60001368039E3168046889B26943240C0919EB
:104B7000C9190F049BB23B43036080CE43683F0CCE
:104B80006F439BB2FB18090C5B18059906901F0C2C
:104B90000430B142E6D806994B60019B04320433DD
:104BA00001939FE7029B013B02939FE70323F7B525
:104BB000134005000E001400002B08D02249013BD1
:104BC0009A00525800233100FFF793FE0600A3100D
:104BD000019336D06C6A002C07D11020FFF71AFE23
:104BE0006862446084600460C4606F6ABC68002CC2
:104BF00007D116492800FFF741FF00230400B860E1
:104C000003600122019B13420AD0310022002800D8
:104C1000FFF73DFF070031002800FFF751FE3E007F
:104C2000019B5B1001930CD02068002807D1220063
:104C300021002800FFF72BFF002320600360040001
:104C4000DFE73000FEBDC046009D00087102000095
:104C5000F0B50D0017002B69541185B0E3180193CE
:104C6000013300934968AB680290009A934235DBA8
:104C70000298FFF7EDFD0023020006001900143230
:104C8000A3422EDBE343DB171C402B00A4001419C6
:104C90002A69143392009A1894461F22174024D090
:104CA0000132D21B0392002219682000B9400A4346
:104CB00004C404CB0399CA409C45F5D84260002A3D
:104CC00002D0019B02330093009B0298013B3361A9
:104CD0002900FFF7F5FD300005B0F0BD01315B00A4
:104CE000C3E7980011500133CAE704CB04C49C45C4
:104CF000FBD8E9E70A69036930B59B1A0DD1920028
:104D00001430143184188918043C043925680A6861
:104D1000954204D00123954204D3180030BDA0422F
:104D2000F2D3FAE75B42F8E7F0B50D0085B0070073
:104D3000110028001400FFF7DDFF061E08D1010056
:104D40003800FFF785FD01234661036105B0F0BD22
:104D500001230193002804DB23002C001D00002305
:104D6000019361683800FFF773FD2F000022019B5B
:104D70002669C3601434B300E31802932B69143717
:104D80009B00FB18039303009446143320CC04CFFC
:104D90000192AAB294446A46614692882D0C8A1AFE
:104DA0000199090C691A151449190D1492B20904D4
:104DB0000A431A60039AAC460433BA42E6D8029911
:104DC0001A008C4205D3043A1368002B0ED00661FA
:104DD000BCE704CC91B261440D14120C52191514A5
:104DE00089B212040A43AC4604C3E8E7013EEAE78D
:104DF0000B00104910B519400F4BC918002904DDEC
:104E000000220B001000190010BD494209150022B4
:104E10000023132904DC8020000308410300F1E78C
:104E2000143901201E2902DC1F24611A8840020067
:104E3000E8E7C0460000F07F0000C0FCF7B50600C0
:104E4000036914369B00F3181D1F2C680F00200007
:104E50000193FFF7CAFD20231B1A3B601C490A2857
:104E600016DC0B2327001B1ADF4039439C460B003E
:104E70000021AE4202D201990839096815308440F8
:104E80006046C1400C4322001000190003B0F0BD81
:104E90000027AE4202D2019D083D2F680B388446A0
:104EA000031E12D09C40202021433C00C01AC44065
:104EB00021430B000021B54201D9043D2968644615
:104EC000C140A7400F433A00DEE721430B00FAE759
:104ED0000000F03FF7B51D0001211400089FFFF707
:104EE000B7FC2B036D0006001B0B6D0D24D1019345
:104EF000002C27D068460094FFF791FD009C002805
:104F00001ED0019B20211A00091A8A40C340224367
:104F100072610193019CB461631E9C410134346150
:104F2000002D18D0124BED1835232D183D60181A9E
:104F3000099B18603000FEBD802252031343D6E760
:104F40007461E7E701A8FFF76AFD0124019B346162
:104F500073612030E4E7074BC018074B3860E31853
:104F60009B00F3185869FFF740FD6401201ADFE742
:104F7000CDFBFFFFCEFBFFFFFFFFFF3FF0B585B08E
:104F80000F0002A90600FFF759FF04000D003800CA
:104F900003A900940195FFF751FF36693F690200AC
:104FA000F71B7E01B446039F029E0B00F61B66446E
:104FB0003705002E07DD7919019100980199FCF75A
:104FC000A9FC05B0F0BDCB1BF7E71300013910B504
:104FD00049111269013189001433920041189A185D
:104FE0009A4203D80023814203D810BD10CB10C0D1
:104FF000F6E708C0F7E70200006910B514324B115C
:10500000984212DB0BDD1F20014008D09800845825
:105010002000C8408840010001208C4204D19B0040
:10502000D318934203D8002010BD0300F7E7043BD8
:1050300019680029F5D00120F6E74A4370B5110040
:10504000140000F053F8051E03D022000021FEF7E3
:1050500007F9280070BD000070B50500002910D0C8
:105060000C1F2368002B00DAE418280000F0C3F8B6
:105070001D4A1368002B05D163601460280000F0FE
:10508000BBF870BDA34209D9216860188342F3D1EF
:1050900018685B6841182160EEE713005A68002A1F
:1050A00001D0A242F9D919685818A0420BD1206842
:1050B0000918581819608242E0D1106852684118E6
:1050C00019605A60DAE7A04202D90C232B60D5E7B9
:1050D00021686018824203D110685268411821602B
:1050E00062605C60CAE7C04600020020032370B51E
:1050F000CD1C9D43083506000C2D1ED20C25A9425F
:105100001DD8300000F077F8254A146821000029E6
:1051100019D1244C2368002B03D1300000F044F84F
:1051200020602900300000F03FF8431C2BD10C23F5
:105130003000336000F060F803E0002DDFDA0C236C
:105140003360002070BD0B685B1B19D40B2B03D997
:105150000B60CC18256003E04B688C420DD11360C6
:10516000300000F049F8200007220B30231D904347
:10517000C31AE7D05A42E250E4E763600C00EFE75D
:105180000C004968C3E70323C41C9C43A042E1D040
:10519000211A300000F008F8431CDBD1C7E7C046F5
:1051A0000002002004020020002370B5064C050018
:1051B0000800236000F030F9431C03D12368002B62
:1051C00000D02B6070BDC046B8020020EC300068F3
:1051D000704782B0002900D101A9101E06D0002B13
:1051E00006D013780B601078431E984102B07047C8
:1051F00002204042FAE7704770470B1E04D0FF2A96
:1052000004D98A2303608B3B180070470A7001237E
:10521000FAE700000A4B10B504001868002804D013
:105220008369002B01D102F079FC0020132C05D8F2
:10523000044BE400E258013200D0E01810BDC04633
:105240000800002018020020F8B50500431C09D111
:1052500002F01CFC132406000027201C391CABBEE6
:10526000041C34602800F8BDF8B5050002F00EFCFF
:10527000132406000027201C391CABBE041C280088
:105280003460F8BD30B585B001AD01900291039254
:105290000624201C291CABBE041C2000FFF7D4FFF1
:1052A00005B030BD70B50E001500FFF7B3FF041E4A
:1052B00006D102F0EBFB092303600120404270BDE0
:1052C0002A0031000068FFF7DDFF431CF7D0636858
:1052D000281A1B186360F2E7F7B50C001600FFF7F9
:1052E00099FF051E07D102F0D1FB092303600124B9
:1052F00064422000FEBD022E03D902F0C7FB162334
:10530000F4E7012E12D14368E418F6D46F462B68F7
:105310000A2600937C60301C391CABBE061C300092
:10532000FFF792FF0028E2DB6C60E2E7022EEDD18E
:1053300003686F4600930A36301C391CABBE061C4E
:105340003000FFF781FF2418431CDFD1CFE710B5F1
:10535000FFF7C2FF10BD30B585B001AD01900291DD
:1053600003920524201C291CABBE041C2000FFF75F
:105370006BFF05B030BD70B50E001500FFF74AFF9A
:10538000041E06D102F082FB092303600120404283
:105390000FE02A0031000068FFF7DDFF031EF5DB98
:1053A0006268281A121862609D4202D10020FFF73D
:1053B0005BFF70BD37B50224019001AD201C291C94
:1053C000ABBE041C2000FFF73FFF3EBD70B50500DB
:1053D000FFF720FF041E06D102F058FB09230360EB
:1053E0000120404270BD013D012D09D8094B9A684A
:1053F0001B699A4204D101235B4203600020F1E75C
:105400002068FFF7D7FF0028ECD101235B4223601F
:10541000E8E7C046180200200E4A10B511680300E4
:10542000002901D10C49116069461068C3188B42EC
:1054300006D80A490A4C0968A14208D08B4206D90D
:1054400002F024FB0C2303600120404210BD1360D6
:10545000FCE7C04608020020A0040020D80100207C
:10546000ADDEFECA70B50C00FFF7D4FE061E06D1F5
:1054700002F00CFB092303600120404270BD802331
:1054800062689B01134363608023DB0063640C2527
:10549000281C311CABBE051C2800FFF7D5FE431CA1
:1054A000ECD020610020E9E770B50C00050058221F
:1054B00000212000FDF7D4FE28002100FFF7D2FFD5
:1054C00070BD70B50D000400582200212800FDF7C2
:1054D000C7FE2000002100F013F80400431C0CD08C
:1054E00081236A681B0213436B602900FFF7BAFF30
:1054F00005002000FFF76AFF2C00200070BD0000AF
:10550000F0B50D00002799B00090FB000193294BE6
:10551000FA009C58631C38D00137142FF5D102F0E3
:10552000B5FA01241823644203603FE00223EC0330
:10553000E40F1D4200D01C431F4B1D4201D0042329
:105540001C4308231D4202D0042294431C43009BA9
:1055500018000293FAF7D8FD7460B0600124201C93
:10556000311CABBE061C002E0ADB124BFA009E500B
:105570001300104A3C009446002263445A6015E030
:105580003000FFF771FE040010E0A0232A001B0189
:105590001A4002AE9A42C9D131000098FFF791FF3C
:1055A000431CC3D002F072FA11230360200019B02B
:1055B000F0BDC0461802002001060000F0B585B01D
:1055C00000900191274800211500FFF799FF040082
:1055D0002A0000210098FDF743FE631C15D020002F
:1055E000FFF718FE0C260700301C391CABBE061C4A
:1055F0003000FFF729FE032802DD0338A84207DC4C
:1056000020000124FFF7E2FE6442200005B0F0BD57
:1056100003AE042231002000FFF744FE0328EFDD33
:105620003378532BECD17378482BE9D1B378462BE0
:10563000E6D1F378422BE3D1012201992000FFF754
:105640004BFE0028DCDB2A0000992000FFF72AFE31
:1056500005002000FFF7BAFE2800FFF7F5FD040063
:10566000D3E7C046179E0008F7B501240021094E74
:10567000094D01AF2200380031602C60FFF79EFF1A
:10568000002805DD02223B781C40134034602B606B
:10569000F7BDC046DC010020E001002010B5044C3D
:1056A0002368002B01DAFFF7DFFF206810BDC0463A
:1056B000E0010020F0B5274B85B0019300250323BE
:1056C00001ACA36001276560381C211CABBE071C20
:1056D0000121214B49421F602B00204DDA0001338C
:1056E000A950142BFAD1FFF7D9FF002818D0194B75
:1056F000012701930323A36001336360381C211C3D
:10570000ABBE061C164B134A1E6003230192A36016
:1057100005336360381C211CABBE041C114B1C609C
:10572000104F3B68013302D10D4B1B683B600024D6
:10573000094B6C601B682B60FFF7B0FFA04206D0DE
:10574000074BEC601B686C61AB603B682B6105B07C
:10575000F0BDC0462D9E0008100200201802002057
:10576000140200200C02002070B5FFF753FD09253C
:10577000041E04D102F08AF90560200070BD281CC7
:10578000211CABBE041C2000012CF7D002F07EF9D6
:10579000002406001325281C211CABBE051C356007
:1057A000EBE7000010B50400074B1868FA218900E8
:1057B000FAF7BCFC00F070F8012000222100404202
:1057C00000F030F8002010BD0400002010B5064A9B
:1057D000136840210B4313600020FFF7E3FF02F042
:1057E0007BF8002010BDC04600200240024A13682A
:1057F000013313607047C046BC020020014B18689B
:105800007047C046BC02002010B582B00190FFF77F
:10581000F5FF0400FFF7F2FF001B019B9842F9D34C
:1058200002B010BD70B5002811DB8408134DC034E0
:10583000A400625903231840C000FC331E008640B8
:10584000B24389010B4083401343635170BDC0B222
:105850000F220240083A920806329200084BD318F1
:105860005D6803242040C000FF2214008440A5434B
:1058700089010A4082402A435A60E7E700E100E0DC
:1058800000ED00E01F2318401E3B8340014A1360D7
:105890007047C04600E100E001380A4B98420FD83B
:1058A000094A50600948036A1B021B0AC021090605
:1058B0000B4303620023936007331360002070479B
:1058C0000120FCE7FFFFFF0010E000E000ED00E03A
:1058D000042805D0054A136804218B4313607047E0
:1058E000024A136804210B431360F8E710E000E05C
:1058F000704710B5FFF7FCFF10BD000010B5252361
:10590000C35C022B03D00423C363012010BD0268D3
:1059100013680E218B431360026813680D398B43A3
:1059200013600368194A934214D0194A934220D055
:10593000184A93421FD0184A93421FD0174A9342E5
:105940001FD0174A934202D08022520403E08022E3
:10595000520300E00122134B5A6025230122C25456
:10596000013B0022C254836B002B0DD098470020CE
:10597000CCE71022EFE780225200ECE780225201B0
:10598000E9E780225202E6E70020BFE70800024074
:105990001C00024030000240440002405800024017
:1059A0006C00024000000240F0B5C64600B500237E
:1059B00038E0052600E00026AE4035003D430234C5
:1059C000A400584EA551584C25684246D4432E0099
:1059D00026404A68D20302D5424615432E00524D56
:1059E0002E606D682E0026404A68920302D542461A
:1059F00015432E004C4D6E60AD682E0026404A685F
:105A0000D20202D5424615432E00474DAE60ED68E6
:105A10002C404A68920202D542462A431400424A68
:105A2000D46001330A681400DC4077D001249C4024
:105A300022409046F5D04D68022D01D0122D0ED196
:105A4000DD080835AD002F5807261E40B6000F228E
:105A5000B24097430A69B24016003E432E504D684B
:105A60006E1E012E03D9112D01D0122D12D1856881
:105A70005F000326BE40B5432E00CD68BD403543D0
:105A800085604568A5434A681609012434409C4056
:105A90002C43446007685E0003242500B540ED43B5
:105AA0002F404A681440B4403C430460C468254019
:105AB0008C68B4402C43C4604A68D200B1D51B4DF9
:105AC0006C6B012634436C639C08A51CAD00154E1D
:105AD000AF5903261E40B5000F26AE40B743A0269F
